S00F0000547261666669632E7372656356
S11300000C942A000C94DA010C943C000C943C00EF
S11300100C943C000C943C000C943C000C943C006C
S11300200C943C000C943C000C943C000C943C005C
S11300300C943C000C943C000C943C000C943C004C
S11300400C943C000C943C000C943C000C943C003C
S11300500C943C0011241FBECFE5D8E0DEBFCDBF19
S113006020E0A0E6B0E001C01D92AA37B207E1F794
S11300700E9476020C946E070C9400000E946B039D
S1130080089540E063E084E40E94F30280916300F9
S1130090813051F138F0823009F461C0833009F4C1
S11300A081C0089541E060E081E40E94F30241E0F0
S11300B062E082E40E94F30281E080936300109284
S11300C0640061E070E088E893E10E94FD0310920F
S11300D0600040E060E081E40E94F30240E062E0FE
S11300E082E40E94F302089541E061E081E40E9409
S11300F0F30241E061E082E40E94F30282E0809333
S1130100630081E08093640013C061E070E088EED6
S113011093E00E94FD0361E081E40E943E0061E0FF
S113012082E40E943E00809162008F5F80936200AF
S113013080916200853020F480916000882329F347
S1130140109262001092600040E061E081E40E943D
S1130150F30240E061E082E40E94F302089541E08A
S113016062E081E40E94F30241E060E082E40E94E4
S1130170F30283E08093630082E08093640061E093
S113018070E088E893E10E94FD031092600040E073
S113019062E081E40E94F30240E060E082E40E94B5
S11301A0F302089541E061E081E40E94F30241E03A
S11301B061E082E40E94F3021092630083E0809382
S11301C0640013C061E070E088EE93E00E94FD03D8
S11301D061E081E40E943E0061E082E40E943E000E
S11301E0809162008F5F809362008091620085300D
S11301F020F480916000882329F310926200109209
S1130200600040E061E081E40E94F30240E061E0CC
S113021082E40E94F302089518BA1092620081E009
S1130220809361000E94DE0380916400811113C0F9
S113023041E060E081E40E94F30241E062E082E494
S11302400E94F30261E070E088E893E10E94FD03FC
S113025010926100AAC08150833008F0A6C041E02A
S113026060E082E40E94F30241E061E082E40E94E3
S1130270F30241E061E081E40E94F30213C061E013
S113028070E088EE93E00E94FD0361E081E40E9447
S11302903E0061E082E40E943E00809162008F5F34
S11302A08093620080916200853048F3109262006E
S11302B040E060E082E40E94F30240E061E082E416
S11302C00E94F30240E062E081E40E94F30240E015
S11302D061E081E40E94F30241E060E081E40E9475
S11302E0F30241E062E082E40E94F30261E070E024
S11302F088E893E10E94FD0340E060E081E40E940D
S1130300F30241E061E081E40E94F30241E061E034
S113031082E40E94F30213C061E070E088EE93E08F
S11303200E94FD0361E081E40E943E0061E082E4FA
S11303300E943E00809162008F5F809362008091F2
S11303406200853048F31092620040E062E082E48B
S11303500E94F30240E061E082E40E94F30241E083
S113036060E082E40E94F30241E062E081E40E94E2
S1130370F30240E061E081E40E94F30280916400B2
S1130380823051F461E070E088E893E10E94FD035B
S113039083E08093630007C0813011F0833019F447
S11303A082E0809363001092610081E090E00E94FB
S11303B0A20308951F920F920FB60F9211242F9348
S11303C03F934F935F936F937F938F939F93AF93D9
S11303D0BF93EF93FF9341E064E084E40E94F3024F
S11303E08091610081110FC081E08093600041E041
S11303F063E084E40E94F3020E940C0140E064E0A4
S113040084E40E94F302FF91EF91BF91AF919F9119
S11304108F917F916F915F914F913F912F910F90A9
S11304200FBE0F901F90189541E060E081E40E9498
S11304307B0241E061E081E40E947B0241E062E0F2
S113044081E40E947B0241E060E082E40E947B023E
S113045041E061E082E40E947B0241E062E082E4E8
S11304600E947B0240E062E084E40E947B0240E060
S113047060E081E40E94F30240E061E081E40E94D4
S1130480F30240E062E081E40E94F30240E060E0B5
S113049082E40E94F30240E061E082E40E94F302FD
S11304A040E062E082E40E94F30241E063E084E41D
S11304B00E947B0241E064E084E40E947B0240E00D
S11304C063E084E40E94F30240E064E084E40E9478
S11304D0F3028FB780688FBF85B7816085BF85B70A
S11304E0826085BF8BB780648BBF08950E9414021D
S11304F00E944100FDCF823429F118F4813439F08F
S113050008958334D1F1843409F452C008954130FC
S113051059F42AB381E090E002C0880F991F6A95CC
S1130520E2F7822B8ABB089541115CC02AB381E0B3
S113053090E002C0880F991F6A95E2F780958223A4
S11305408ABB0895413059F427B381E090E002C09A
S1130550880F991F6A95E2F7822B87BB0895411192
S113056041C027B381E090E002C0880F991F6A95CB
S1130570E2F78095822387BB0895413059F424B370
S113058081E090E002C0880F991F6A95E2F7822B00
S113059084BB0895411126C024B381E090E002C0D9
S11305A0880F991F6A95E2F78095822384BB08958A
S11305B0413059F421B381E090E002C0880F991FC3
S11305C06A95E2F7822B81BB089541110BC021B3D8
S11305D081E090E002C0880F991F6A95E2F7809548
S11305E0822381BB0895823429F118F4813439F0CF
S11305F008958334D1F1843409F452C0089541300C
S113060059F42BB381E090E002C0880F991F6A95DA
S1130610E2F7822B8BBB089541115CC02BB381E0C0
S113062090E002C0880F991F6A95E2F780958223B3
S11306308BBB0895413059F428B381E090E002C0A7
S1130640880F991F6A95E2F7822B88BB08954111A0
S113065041C028B381E090E002C0880F991F6A95D9
S1130660E2F78095822388BB0895413059F425B37D
S113067081E090E002C0880F991F6A95E2F7822B0F
S113068085BB0895411126C025B381E090E002C0E6
S1130690880F991F6A95E2F78095822385BB089598
S11306A0413059F422B381E090E002C0880F991FD1
S11306B06A95E2F7822B82BB089541110BC022B3E5
S11306C081E090E002C0880F991F6A95E2F7809557
S11306D0822382BB08958234A1F018F4813431F06E
S11306E008958334C9F0843411F108952BB381E063
S11306F090E002C0880F991F6A95E2F782278BBBAE
S1130700089528B381E090E002C0880F991F6A958C
S1130710E2F7822788BB089525B381E090E002C008
S1130720880F991F6A95E2F7822785BB089522B343
S113073081E090E002C0880F991F6A95E2F7822752
S113074082BB089588309105D1F048F48530910535
S113075031F18630910539F1019741F50CC08115CD
S113076021E09207A1F0811524E09207A1F08034E2
S11307709105E1F408C083B7816083BF089583B70E
S1130780826083BF089583B7836083BF089583B76E
S1130790846083BF089583B7856083BF089583B75A
S11307A0866083BF089583B7876083BF089508B6C2
S11307B000FEFDCF88B7816088BF089513BE12BEC6
S11307C010926600109265001092710010927200EF
S11307D010927300109274001092760010927700B9
S11307E0109278001092790010926D0010926E00B1
S11307F010926F001092700008954F925F926F9262
S11308007F928F929F92AF92BF92CF92DF92EF929C
S1130810FF92CF93DF93EB01BC0180E090E00E9454
S113082009062FE632E143E85AE30E9401076B010F
S11308307C016093710070937200809373009093B5
S11308407400BE0180E090E00E94090620E034E2DA
S113085044E759E40E9468052B013C01609376004B
S113086070937700809378009093790020E030E0D3
S113087040E853E40E9401074B015C0160936D0062
S113088070936E0080936F00909370009B01AC0195
S1130890C701B6010E9463058823ACF4A701960141
S11308A0C501B4010E94DF04A30192010E946805FE
S11308B00E94DA056093750081E090E090936800EF
S11308C0809367004AC0A5019401C701B6010E9444
S11308D06305811109C01092750081E090E0909346
S11308E068008093670039C0A5019401C701B6016F
S11308F00E94FC0618168CF5A5019401C701B601E7
S11309000E9468050E944C050E94DA054B015C01B7
S11309107093680060936700A3019201C701B60158
S11309200E9468056B017C01B40180E090E00E94A4
S113093009069B01AC01C701B6010E9468059B0131
S1130940AC0160E070E080E893E40E94DF040E9460
S11309504C050E94DA05609375008091750082BF92
S1130960CE010E94A2030BC00E94D70380916500B0
S113097090916600019690936600809365002091A3
S11309806500309166008091670090916800281797
S1130990390750F310926600109265000E94DE033E
S11309A0DF91CF91FF90EF90DF90CF90BF90AF9009
S11309B09F908F907F906F905F904F9008955058C4
S11309C0BB27AA270E94F7040C94AA060E949C063F
S11309D038F00E94A30620F039F49F3F19F426F45E
S11309E00C9499060EF4E095E7FB0C946A06E92F43
S11309F00E94BB0658F3BA1762077307840795076A
S1130A0020F079F4A6F50C94F5060EF4E0950B2E7F
S1130A10BA2FA02D0B01B90190010C01CA01A0014C
S1130A201124FF27591B99F0593F50F4503E68F1A7
S1130A301A16F040A22F232F342F4427585FF3CFE8
S1130A40469537952795A795F0405395C9F77EF4B9
S1130A501F16BA0B620B730B840BBAF09150A1F002
S1130A60FF0FBB1F661F771F881FC2F70EC0BA0F88
S1130A70621F731F841F48F4879577956795B79510
S1130A80F7959E3F08F0B0CF9395880F08F099270B
S1130A90EE0F9795879508950E94DD0690F09F3795
S1130AA048F4911116F40C94F60660E070E080E8C6
S1130AB09FE3089526F01B16611D711D811D0C9482
S1130AC070060C948B060E94460608F481E0089593
S1130AD00E947C050C94AA060E94A30658F00E946A
S1130AE09C0640F029F45F3F29F00C946A065111EA
S1130AF00C94F6060C9499060E94BB0668F399239D
S1130B00B1F3552391F3951B550BBB27AA27621705
S1130B107307840738F09F5F5F4F220F331F441F12
S1130B20AA1FA9F335D00E2E3AF0E0E832D0915046
S1130B305040E695001CCAF72BD0FE2F29D0660F33
S1130B40771F881FBB1F261737074807AB07B0E876
S1130B5009F0BB0B802DBF01FF2793585F4F3AF07C
S1130B609E3F510578F00C946A060C94F6065F3F9C
S1130B70E4F3983ED4F3869577956795B795F79502
S1130B809F5FC9F7880F911D9695879597F90895EA
S1130B90E1E0660F771F881FBB1F62177307840786
S1130BA0BA0720F0621B730B840BBA0BEE1F88F795
S1130BB0E09508950E94C30688F09F5798F0B92FD6
S1130BC09927B751B0F0E1F0660F771F881F991F7E
S1130BD01AF0BA95C9F714C0B13091F00E94F50625
S1130BE0B1E008950C94F506672F782F8827B85F35
S1130BF039F0B93FCCF3869577956795B395D9F7D6
S1130C003EF490958095709561957F4F8F4F9F4FDF
S1130C100895E89409C097FB3EF4909580957095EB
S1130C2061957F4F8F4F9F4F9923A9F0F92F96E934
S1130C30BB279395F695879577956795B795F111A9
S1130C40F8CFFAF4BB0F11F460FF1BC06F5F7F4F46
S1130C508F4F9F4F16C0882311F096E911C0772358
S1130C6021F09EE8872F762F05C0662371F096E861
S1130C70862F70E060E02AF09A95660F771F881F30
S1130C80DAF7880F9695879597F90895990F0008D4
S1130C90550FAA0BE0E8FEEF16161706E807F9074A
S1130CA0C0F012161306E407F50798F0621B730BE5
S1130CB0840B950B39F40A2661F0232B242B252B66
S1130CC021F408950A2609F4A140A6958FEF811D09
S1130CD0811D089597F99F6780E870E060E00895AA
S1130CE0882371F4772321F09850872B762F07C03F
S1130CF0662311F499270DC09051862B70E060E0B3
S1130D002AF09A95660F771F881FDAF7880F969551
S1130D10879597F908959F3F31F0915020F4879576
S1130D2077956795B795880F911D9695879597F94F
S1130D3008959FEF80EC089500240A941616170670
S1130D4018060906089500240A94121613061406B8
S1130D5005060895092E0394000C11F4882352F01B
S1130D60BB0F40F4BF2B11F460FF04C06F5F7F4FD3
S1130D708F4F9F4F089557FD9058440F551F59F0BA
S1130D805F3F71F04795880F97FB991F61F09F3F74
S1130D9079F087950895121613061406551FF2CF9D
S1130DA04695F1DF08C0161617061806991FF1CFED
S1130DB0869571056105089408950E94C306A0F004
S1130DC0BEE7B91788F4BB279F3860F41616B11D27
S1130DD0672F782F8827985FF7CF86957795679543
S1130DE0B11D93959639C8F30895E894BB276627F7
S1130DF07727CB0197F908950E94460608F48FEFF0
S1130E0008950E9414070C94AA060E949C0638F0C8
S1130E100E94A30620F0952311F00C946A060C940A
S1130E20990611240C94F6060E94BB0670F3959F54
S1130E30C1F3950F50E0551F629FF001729FBB27CD
S1130E40F00DB11D639FAA27F00DB11DAA1F649F69
S1130E506627B00DA11D661F829F2227B00DA11D1C
S1130E60621F739FB00DA11D621F839FA00D611DA2
S1130E70221F749F3327A00D611D231F849F600DC3
S1130E80211D822F762F6A2F11249F5750409AF0EC
S1130E90F1F088234AF0EE0FFF1FBB1F661F771F78
S1130EA0881F91505040A9F79E3F510580F00C9443
S1130EB06A060C94F6065F3FE4F3983ED4F38695F5
S1130EC077956795B795F795E7959F5FC1F7FE2BE3
S1130ED0880F911D9695879597F90895F894FFCFFB
S9030000FC
